:020000040000FA
:0600000094EF21F0120054
:020006001200E6
:06000800F9EF1EF01200EA
:02000E00C250DE
:08001000020B01E0010E1200D9
:06001800F9EF1EF01200DA
:02001E000100DF
:0C002000844300004C06000003000000B8
:04002C0055EC1EF081
:10003000BDEC04F0D5EC04F042EC05F032EC04F039
:1000400075EC12F028EC05F056EC1EF012000501DC
:1000500022050EE105011A51006E016AD890015087
:1000600004E6FF0E005C000E015802E205011A2BA7
:100070001200D9CFE6FFDACFE6FFE1CFD9FFE2CF1A
:10008000DAFFE6520501220573E1DF6AF2AE02D023
:10009000010EDF6EF29E05011A51000802E2050111
:1000A0001A0705011A5161E105011C515EE1360E86
:1000B000006E3F0E016E000E026E1FC503F0046A53
:1000C000056A00500324F36E01500420F46E0250C0
:1000D0000520F86EF4CFF7FFF3CFF6FF0800F5CF59
:1000E0001BF5360E016E3F0E026E000E036E05010B
:1000F0001B51EA6A200FE96E050EEA22EFCF04F0E9
:10010000056A066A01500424F36E02500520F46E5D
:1001100003500620F86EF4CFF7FFF3CFF6FF080088
:10012000F5CF00F005011B51080DF3500024050127
:100130001E6F05011D5105011E5D17E005011E51D1
:10014000E96EEA6AD890E936EA36940EE926050E99
:10015000EA22EECF90F5EDCF91F50401C42B000E0D
:10016000C523C623C7235AEC1FF0DF5001E0F28EEF
:10017000E552E552E5CFDAFFE7CFD9FF1200D9CF3C
:10018000E6FFDACFE6FFE1CFD9FFE2CFDAFFE652B2
:10019000E652050122515CE1360E006E3F0E016E03
:1001A000000E026E1FC503F0046A056A00500324A6
:1001B000F36E01500420F46E02500520F86EF4CF67
:1001C000F7FFF3CFF6FF0800F550DF6E360E006E36
:1001D0003F0E016E000E026EDF50EA6A200FE96EDC
:1001E000050EEA22EFCF03F0046A056A00500324EB
:1001F000F36E01500420F46E02500520F86EF4CF27
:10020000F7FFF3CFF6FF0800010EF5CFDBFF010E7D
:10021000DBCFE6FFDF50080DF350E552E724050180
:100220001E6F1EC51DF505011E51E96EEA6AD890C4
:10023000E936EA36940EE926050EEA22EECF90F56D
:10024000EDCF91F590C58CF591C58DF557EC1EF06D
:10025000E552E552E552E5CFDAFFE7CFD9FF1200CC
:10026000D9CFE6FFDACFE6FFE1CFD9FFE2CFDAFF61
:10027000E652E652E65245EC1EF0DF6AF2AE02D0DC
:10028000010EDF6EF29E06013E2B000E3F2340233F
:100290004123DF5001E0F28E0501220501E0A0D0EC
:1002A000010E92C5DBFF020E93C5DBFF010EDBCF13
:1002B000E9FF020EDBCFEAFF0D0EE926000EEA226F
:1002C000EFCF00F0016A026A036A0F0E001805E121
:1002D000015003E1025001E1035001E181D0DF6AE6
:1002E000F2AE02D0010EDF6EF29E010EDBCFE9FF0F
:1002F000020EDBCFEAFF0A0EE926000EEA22EE50DC
:10030000ED105AE0010EDBCFE9FF020EDBCFEAFF72
:100310000A0EE926000EEA22EE06000EED5AEECF96
:1003200000F0EDCF01F00050011046E1010EDBCFEF
:10033000E9FF020EDBCFEAFF0C0EE926000EEA22EF
:10034000EF50080B2CE1010EDBCFE9FF020EDBCFF3
:10035000EAFF110EE926000EEA22EF5005011F13F5
:10036000010EDBCFE9FF020EDBCFEAFF100EE9261C
:10037000000EEA22EFCF00F0010EDBCFE9FF020E04
:10038000DBCFEAFF0F0EE926000EEA22EF50EA6A01
:10039000200FE96E050EEA220050EF120DD0010E7B
:1003A000DBCFE9FF020EDBCFEAFF0A0EE926000EE3
:1003B000EA22010EEE6EED6A010EDBCFE9FF020EBE
:1003C000DBCFEAFF020EE926000EEA22010EEECF95
:1003D000DBFF020EEDCFDBFFDF5001E0F28E66D7D0
:1003E000E552E552E552E552E5CFDAFFE7CFD9FF16
:1003F0001200FC0EF36EF46A00D01200D9CFE6FFB3
:10040000DACFE6FFE1CFD9FFE2CFDAFF070EE12432
:1004100002E3E168E652E16E360E006E3F0E016EB9
:10042000000E026EFC0EDBCFE9FFFD0EDBCFEAFF14
:10043000EE52EFCF03F0046A056A00500324F36E16
:1004400001500420F46E02500520F86EF4CFF7FF3F
:10045000F3CFF6FF0800030EF5CFDBFF2E0E006E84
:100460003F0E016E000E026E030EDBCF03F0046A36
:10047000056A00500324F36E01500420F46E02500C
:100480000520F86EF4CFF7FFF3CFF6FF0800050E56
:10049000F5CFDBFF360E006E3F0E016E000E026ED2
:1004A000FC0EDBCFE9FFFD0EDBCFEAFF060EE926EF
:1004B000000EEA22E9CF06F0EACF07F0030EDB5088
:1004C0000F010624E96E000E0720EA6EEFCF03F05D
:1004D000046A056A00500324F36E01500420F46E90
:1004E00002500520F86EF4CFF7FFF3CFF6FF0800B7
:1004F000020EF5CFDBFF2E0E006E3F0E016E000EDA
:10050000026E020EDBCF03F0046A056A005003247A
:10051000F36E01500420F46E02500520F86EF4CF03
:10052000F7FFF3CFF6FF0800040EF5CFDBFF020E56
:10053000DBCFE6FF030EDB50080DF350E552E72456
:10054000E76E060EE7CFDBFF040EDB1C026EFC0E2F
:10055000DBCFE9FFFD0EDBCFEAFF060EE926000E3A
:10056000EA22E9CF00F0EACF01F0030EDB500F01E1
:100570000024E96E000E0120EA6E0250EF16EF50E3
:100580000CE1050EDB1C006EFC0EDBCFE9FFFD0E5F
:10059000DBCFEAFFEE520050EF16060EEA6ADB34BC
:1005A000FE0BEA36E96E940EE926050EEA22EECF3E
:1005B000DEFFEDCFDDFFDECFE9FFDDCFEAFF0A0E84
:1005C000EB6A0B0EEB6ADECFE9FFDDCFEAFF060E2A
:1005D000EB6A070EEB6ADECFE9FFDDCFEAFF080E1C
:1005E000E926000EEA22FA0EDBCFEEFFFB0EDBCF90
:1005F000EDFFF90EDB1C006EDECFE9FFDDCFEAFF79
:100600000C0EE926000EEA220050EF16DECFE9FFBD
:10061000DDCFEAFF0C0EE926000EEA22EF500EE1D4
:10062000050EDB5005011F13030EDB50EA6A200F95
:10063000E96E050EEA22040EDB50EF12060EDB50C7
:1006400000D0006E070EE15C02E2E16AE552E16E65
:100650000050E552E5CFDAFFE7CFD9FF1200D9CF3E
:10066000E6FFDACFE6FFE1CFD9FFE2CFDAFF8CC5B4
:10067000E9FF8DC5EAFF060EE926000EEA22FC0E10
:10068000DBCFEEFFFD0EDBCFEDFF8CC5E9FF8DC5A7
:10069000EAFF100EEB50E81C006E8CC5E9FF8DC51B
:1006A000EAFF0F0EEB50EA6A200FE96E050EEA2210
:1006B0000050EF16EF5009E18CC5E9FF8DC5EAFF48
:1006C000110EEB50E81C05011F178CC5E9FF8DC505
:1006D000EAFF100EEB50026EFC0EDBCFE9FFFD0EC1
:1006E000DBCFEAFF060EE926000EEA22E9CF00F092
:1006F000EACF01F08CC5E9FF8DC5EAFF0F0EEB5084
:100700000F010024E96E000E0120EA6E0250EF1284
:100710008CC5E9FF8DC5EAFF110EEB50006EFC0E93
:10072000DBCFE9FFFD0EDBCFEAFFEE520050EF1208
:10073000E552E5CFDAFFE7CFD9FF1200D9CFE6FFC8
:10074000DACFE6FFE1CFD9FFE2CFDAFF8CC5E9FFD0
:100750008DC5EAFF100EEB50E81C026EFC0EDBCFDD
:10076000E9FFFD0EDBCFEAFF060EE926000EEA22C6
:10077000E9CF00F0EACF01F08CC5E9FF8DC5EAFFB3
:100780000F0EEB500F010024E96E000E0120EA6EFF
:100790000250EF16EF5011E18CC5E9FF8DC5EAFF5D
:1007A000110EEB50E81C006EFC0EDBCFE9FFFD0ED6
:1007B000DBCFEAFFEE520050EF168CC5E9FF8DC586
:1007C000EAFF0C0EE926000EEA22EF6A8CC5E9FF6B
:1007D0008DC5EAFF060EEB6A070EEB6AE552E5CF20
:1007E000DAFFE7CFD9FF1200D9CFE6FFDACFE6FF75
:1007F000E1CFD9FFE2CFDAFFE652E652FC0EDBCFC3
:10080000E9FFFD0EDBCFEAFFEE52EF6AFC0EDBCF15
:10081000E9FFFD0EDBCFEAFF060EE926000EEA2215
:10082000E9CF00F0EACF01F000C0DEFF01C0DDFF3C
:10083000DFCFE9FFDF2A010EDBCFEAFF01E3DB2A8E
:10084000EF6ADFCFE9FFDF2A010EDBCFEAFF01E32A
:10085000DB2AEF6AE552E552E552E5CFDAFFE7CF52
:10086000D9FF1200D9CFE6FFDACFE6FFE1CFD9FFFB
:10087000E2CFDAFF060EE12402E3E168E652E16E20
:10088000D950020FE96EDACFEAFF000EEA22CA0E53
:10089000EE6E040EED6ED950040FE96EDACFEAFF6A
:1008A000000EEA22D20EEE6E040EED6EDE6ADD6AF6
:1008B000DECF00F0DDCF01F0026A036AD89003506A
:1008C000000A08E6090E005C000E0158000E0258EE
:1008D000000E035830E2020EDBCFE9FF030EDBCF40
:1008E000EAFFEF6A020EDBCFE9FF030EDBCFEAFF80
:1008F000040EE926000EEA22040EDBCFEEFF050E01
:10090000DBCFEDFFD950020FE96E000EDA20EA6E60
:10091000080EEE26000EEF22D950040FE96E000EED
:10092000DA20EA6E080EEE26000EEF22DF2A010E14
:1009300001E3DB2ABDD7020EDBCFE9FF030EDBCFDD
:10094000EAFFEF6A020EDBCFE9FF030EDBCFEAFF1F
:10095000040EEB6A050EEB6A0401CA0EC86F040EA2
:10096000C96F060EE15C02E2E16AE552E16EE55212
:10097000E5CFDAFFE7CFD9FF120006013E6B3F6BF0
:10098000406B416B05011A6B05011C6B0501236B64
:100990000501226B0401C46BC56BC66BC76B0501F7
:1009A000246B256B266B276B1200D9CFE6FFDACFBD
:1009B000E6FFE1CFD9FFE2CFDAFFE652E652E65298
:1009C000E65205011F6BD950020FE96EDACFEAFF3C
:1009D000000EEA22200EEE6E050EED6EDE6ADD6A76
:1009E000DECF00F0DDCF01F0026A036AD890035039
:1009F000000A08E6020E005C000E0158000E0258C4
:100A0000000E03580FE2020EDBCFE9FFDB2A030ED4
:100A1000DBCFEAFF01E3DB2AEF6ADF2A010E01E305
:100A2000DB2ADED705011D6B05011E6B0501906BEE
:100A3000916B05018C6B8D6B040EE15C02E2E16A47
:100A4000E552E16EE552E5CFDAFFE7CFD9FF1200BC
:100A50000F0EE66E280EE66E050EE66E000EE66ED2
:100A6000E66AB80EE66E0C0EE66E000EE66EF3EC6D
:100A700016F0006E080EE15C02E2E16AE552E16EFA
:100A800000501200D9CFE6FFDACFE6FFE1CFD9FF61
:100A9000E2CFDAFFE652E652E652E652E6520501AE
:100AA000926B936BDF6ADFCF00F0016A026A036A20
:100AB000D8900350000A08E6100E005C000E0158A2
:100AC000000E0258000E03580DE2EA6ADF34FE0BF6
:100AD000EA36E96E940EE926050EEA22EE6AED6A20
:100AE000DF2AE1D7D950010FE96EDACFEAFF000E15
:100AF000EA22B40EEE6E050EED6ED950030FE96ECC
:100B0000DACFEAFF000EEA22C60EEE6E050EED6E9B
:100B1000DF6ADFCF00F0016A026A036AD8900350EF
:100B2000000A08E6050E005C000E0158000E02588F
:100B3000000E035826E2010EDBCFE9FF020EDBCFE9
:100B4000EAFF020EE926000EEA22030EDBCFEEFFDB
:100B5000040EDBCFEDFFD950010FE96E000EDA2055
:100B6000EA6E120EEE26000EEF22D950030FE96E48
:100B7000000EDA20EA6E120EEE26000EEF22DF2AB9
:100B8000C8D7010EDBCFE9FF020EDBCFEAFF020E72
:100B9000EB6A030EEB6A0501B40E8E6F050E8F6FC4
:100BA000050EE15C02E2E16AE552E16EE552E5CF55
:100BB000DAFFE7CFD9FF1200D9CFE6FFDACFE6FFA1
:100BC000E1CFD9FFE2CFDAFFE652E652DF6AF2AEBA
:100BD00002D0010EDF6EF29E05011A5162E105019D
:100BE0001C515FE1360E006E3F0E016E000E026E6C
:100BF0001FC503F0046A056A00500324F36E015018
:100C00000420F46E02500520F86EF4CFF7FFF3CF06
:100C1000F6FF0800010EF5CFDBFF360E016E3F0E2A
:100C2000026E000E036E010EDB50EA6A200FE96EC1
:100C3000050EEA22EFCF04F0056A066A015004248B
:100C4000F36E02500520F46E03500620F86EF4CFC8
:100C5000F7FFF3CFF6FF0800F5CF00F0010EDB50F1
:100C6000080DF350002405011E6F05011D510501FB
:100C70001E5D17E005011E51E96EEA6AD890E9365B
:100C8000EA36940EE926050EEA22EECF90F5EDCF76
:100C900091F50401C42B000EC523C623C72391EC94
:100CA0001EF0DF5001E0F28EE552E552E552E5CF4D
:100CB000DAFFE7CFD9FF1200D9CFE6FFDACFE6FFA0
:100CC000E1CFD9FFE2CFDAFFE652FC0EDBCF1AF01C
:100CD000FD0EDBCF1BF0FC0E1AC0DBFFFD0E1BC0B0
:100CE000DBFFDF6AF2AE02D0010EDF6EF29E05017D
:100CF000242B000E252326232723DF5001E0F28E2C
:100D000054EC1EF0EED7E552E552E5CFDAFFE7CF1F
:100D1000D9FF1200D9CFE6FFDACFE6FFE1CFD9FF46
:100D2000E2CFDAFFE652E652E652DF6AF2AE02D0D6
:100D3000010EDF6EF29E010E8EC5DBFF020E8FC527
:100D4000DBFFD950010FE96E000EDA20EA6EEE509B
:100D5000ED1001E1A5D1010EDBCFE9FF020EDBCFE3
:100D6000EAFF020EE926000EEA22EECF8EF5EDCF65
:100D70008FF5DF5001E0F28E010EDBCFE9FF020EAE
:100D8000DBCFEAFFFB0EDBCFEEFFFC0EDBCFEDFF90
:100D9000010EDBCFE9FF020EDBCFEAFF0D0EE926E5
:100DA000000EEA22FD0EDBCFEFFF010EDBCFE9FFE5
:100DB000020EDBCFEAFF0C0EE926000EEA22EF6AF4
:100DC000010EDBCFE9FF020EDBCFEAFF0A0EEB6A72
:100DD0000B0EEB6AF10EDBCF1AF0F20EDBCF1BF03D
:100DE000F10E1AC0DBFFF20E1BC0DBFFD950F30F70
:100DF000E96EFF0EDA20EA6EF30EEECFDBFFF40EA3
:100E0000EECFDBFFF50EEECFDBFFF60EEECFDBFF16
:100E1000F90EDBCF1AF0FA0EDBCF1BF0F90E1AC079
:100E2000DBFFFA0E1BC0DBFFEF0EDBCF1AF0F00E7C
:100E3000DBCF1BF0EF0E1AC0DBFFF00E1BC0DBFF99
:100E4000F70EDBCF1AF0F80EDBCF1BF0F70E1AC04F
:100E5000DBFFF80E1BC0DBFFFD0EDB40E840E84087
:100E60001F0BE66E010EDBCFE9FF020EDBCFEAFFC0
:100E70000F0EE926000EEA22E552E750EF6E2E0E25
:100E8000006E3F0E016E000E026E010EDBCFE9FF19
:100E9000020EDBCFEAFF0F0EE926000EEA22EFCFAB
:100EA00003F0046A056A00500324F36E0150042025
:100EB000F46E02500520F86EF4CFF7FFF3CFF6FF83
:100EC0000800F550E66E010EDBCFE9FF020EDBCF26
:100ED000EAFF110EE926000EEA22E552E750EF6E16
:100EE000FD0EDB50070BE66E010EDBCFE9FF020EB5
:100EF000DBCFEAFF0E0EE926000EEA22E552E750AC
:100F0000EF6E2E0E006E3F0E016E000E026E010E91
:100F1000DBCFE9FF020EDBCFEAFF0E0EE926000E63
:100F2000EA22EFCF03F0046A056A00500324F36E4F
:100F300001500420F46E02500520F86EF4CFF7FF44
:100F4000F3CFF6FF0800F550E66E010EDBCFE9FFA8
:100F5000020EDBCFEAFF100EE926000EEA22E55270
:100F6000E750EF6E010EDBCFE9FF020EDBCFEAFFA9
:100F7000060EEB6A070EEB6A010EDBCFE9FF020EED
:100F8000DBCFEAFF080EEB6A090EEB6A010EDBCF3E
:100F9000E6FF020EDBCFE6FF46EC1EF0E552E5521F
:100FA000010EDBCFE6FF020EDBCFE6FF27EC1EF0E3
:100FB000E552E552DF6AF2AE02D0010EDF6EF29E1C
:100FC000FD0EEA6ADB34FE0BEA36E96E940EE92682
:100FD000050EEA22010EDBCFEEFF020EDBCFEDFFA6
:100FE000010EDBCFE9FF020EDBCFEAFF020EE9269E
:100FF000000EEA2292C5EEFF93C5EDFF010EDBCF96
:10100000E9FF020EDBCFEAFF040EEB6A050EEB6A86
:101010000501925193110EE092C5E9FF93C5EAFFD5
:10102000040EE926000EEA22010EDBCFEEFF020ECF
:10103000DBCFEDFF010EDBCF92F5020EDBCF93F598
:10104000010EDBCFE9FF020EDBCFEAFF110EE9262E
:10105000000EEA22EF5005011F13010EDBCFE9FF5E
:10106000020EDBCFEAFF100EE926000EEA22EFCFD8
:1010700000F0010EDBCFE9FF020EDBCFEAFF0F0E1F
:10108000E926000EEA22EF50EA6A200FE96E050E0B
:10109000EA220050EF12DF5001E0F28E000E05D080
:1010A000DF5001E0F28E460E00D0E552E552E552E7
:1010B000E552E5CFDAFFE7CFD9FF1200D9CFE6FF3F
:1010C000DACFE6FFE1CFD9FFE2CFDAFFE652E65210
:1010D000E652E652E652D950FC0FE96EFF0EDA20D6
:1010E000EA6EEE50ED1003E1F36AF46AA9D0FC0E4B
:1010F000DBCFE9FFFD0EDBCFEAFFEF50020803E094
:10110000F36AF46A9DD0DF6AF2AE02D0010EDF6EA0
:10111000F29EFC0EDBCFE9FFFD0EDBCFEAFF040EF3
:10112000E926000EEA22030EEECFDBFF040EEDCF20
:10113000DBFF030EDBCFE9FF040EDBCFEAFF0C0E73
:10114000E926000EEA22EE50ED1068E0030EDBCF38
:10115000E9FF040EDBCFEAFF080EE926000EEA22C3
:10116000EECFF3FFEDCFF4FF020EEE26000EEF22DE
:10117000F3CFE9FFF4CFEAFF010EEECFDBFF020E63
:10118000EDCFDBFF030EDBCFE9FF040EDBCFEAFF81
:101190000C0EE926000EEA22EE06000EEF5A030EB0
:1011A000DBCFE9FF040EDBCFEAFF080EE926000ED5
:1011B000EA22EECF00F0EFCF01F0030EDBCFE9FF24
:1011C000040EDBCFEAFF040EE926000EEA22EECF82
:1011D00002F0EFCF03F00250001802E103500118B3
:1011E0001CE1030EDBCFE9FF040EDBCFEAFF020EAA
:1011F000E926000EEA22EECF00F0EFCF01F0030E59
:10120000DBCFE9FF040EDBCFEAFF080EE926000E74
:10121000EA2200C0EEFF01C0EDFF04D0010EDB6A40
:10122000020EDB6ADF5001E0F28E010EDBCF00F030
:10123000020EDBCF01F000C0F3FF01C0F4FF00D0CD
:10124000050EE15C02E2E16AE552E16EE552E5CFAE
:10125000DAFFE7CFD9FF1200D9CFE6FFDACFE6FFFA
:10126000E1CFD9FFE2CFDAFFE652E652E652E6528C
:10127000E65205011A51000803E2F36AF46A09D143
:10128000DF6AF2AE02D0010EDF6EF29E010EC8C41C
:10129000DBFF020EC9C4DBFF0401C851C9110CE019
:1012A000C8C4E9FFC9C4EAFF040EE926000EEA2219
:1012B000EECFC8F4EDCFC9F4DF5001E0F28ED95083
:1012C000010FE96E000EDA20EA6EEE50ED1001E13A
:1012D000D5D0DF6AF2AE02D0010EDF6EF29E030EB1
:1012E00020C6DBFF040E21C6DBFF060120512111C1
:1012F00008E020C6E9FF21C6EAFFEECF20F6EDCFD9
:1013000021F6DF5001E0F28ED950030FE96E000E96
:10131000DA20EA6EEE50ED1001E18FD0030EDBCF44
:10132000E9FF040EDBCFEAFF020EE926000EEA22F7
:10133000FC0EDBCFEEFFFD0EDBCFEDFFFA0EDBCFB9
:1013400002F0FB0EDBCF03F0010ED890023603361D
:10135000E806FBE1FC0EDB500224006EFD0EDB50C4
:101360000320016E030EDBCFE9FF040EDBCFEAFFA3
:10137000040EE926000EEA2200C0EEFF01C0EDFFD8
:10138000030EDBCFE9FF040EDBCFEAFF060EE926F2
:10139000000EEA22FC0EDBCFEEFFFD0EDBCFEDFFF1
:1013A000030EDBCFE9FF040EDBCFEAFF080EE926D0
:1013B000000EEA22FC0EDBCFEEFFFD0EDBCFEDFFD1
:1013C000030EDBCFE9FF040EDBCFEAFF0A0EE926AE
:1013D000000EEA22FA0EDBCFEEFFFB0EDBCFEDFFB5
:1013E000030EDBCFE9FF040EDBCFEAFF0C0EEB6A46
:1013F0000D0EEB6A010EDBCFE9FF020EDBCFEAFF39
:10140000020EEF6E010EDBCFE9FF020EDBCFEAFF2B
:10141000040EE926000EEA22030EDBCFEEFF040ED7
:10142000DBCFEDFF010EDBCFE6FF020EDBCFE6FFE9
:10143000F4EC03F0E552E55221D0DF6AF2AE02D0BF
:10144000010EDF6EF29E010EDBCFE9FF020EDBCF55
:10145000EAFF040EE926000EEA22C8C4EEFFC9C462
:10146000EDFF010EDBCFC8F4020EDBCFC9F4DF5075
:1014700001E0F28E010EDB6A020EDB6A010EDBCFA9
:1014800000F0020EDBCF01F000C0F3FF01C0F4FF5B
:1014900000D0050EE15C02E2E16AE552E16EE55240
:1014A000E5CFDAFFE7CFD9FF1200D9CFE6FFDACFD9
:1014B000E6FFE1CFD9FFE2CFDAFFE652E652E6528D
:1014C000E65205011A5100080BE2F90EDBCFE9FFE5
:1014D000FA0EDBCFEAFF8C0EEF6EF36AF46A38D1B6
:1014E000D950FC0FE96EFF0EDA20EA6EEE50ED10D7
:1014F00013E1F90EDBCFE9FFFA0EDBCFEAFF040EB2
:10150000EF6EFC0EDBCF00F0FD0EDBCF01F000C074
:10151000F3FF01C0F4FF1CD1FC0EDBCFE9FFFD0E91
:10152000DBCFEAFFEF50020813E0F90EDBCFE9FF53
:10153000FA0EDBCFEAFF010EEF6EFC0EDBCF00F000
:10154000FD0EDBCF01F000C0F3FF01C0F4FF00D1BE
:10155000DF6AF2AE02D0010EDF6EF29EFC0EDBCF30
:10156000E9FFFD0EDBCFEAFFEE52EF5004E0DE5262
:10157000010EDD6E02D0010EDB6AFB0EDB50010AAC
:1015800065E0010A01E0CED0010EDB5049E1FC0E1E
:10159000DBCFE9FFFD0EDBCFEAFF040EE926000EEC
:1015A000EA22020EEECFDBFF030EEDCFDBFF020ED1
:1015B000DBCFE9FF030EDBCFEAFF20C6EEFF21C63B
:1015C000EDFF020EDBCF20F6030EDBCF21F6FC0E83
:1015D000DBCFE9FFFD0EDBCFEAFFEF6AFC0EDBCFCE
:1015E000E9FFFD0EDBCFEAFF040EE926000EEA223A
:1015F000C8C4EEFFC9C4EDFFFC0EDBCFC8F4FD0E7E
:10160000DBCFC9F4DF5001E0F28EF90EDBCFE9FF4A
:10161000FA0EDBCFEAFFEF6AF36AF46A99D016D0CC
:10162000DF5001E0F28EF90EDBCFE9FFFA0EDBCFDF
:10163000EAFF080EEF6EFC0EDBCF00F0FD0EDBCFF5
:1016400001F000C0F3FF01C0F4FF82D0FC0EDBCF3D
:10165000E9FFFD0EDBCFEAFFEE52EF5016E0040E7D
:10166000E66E000EE66EE66AFC0EDBCFE6FFFD0ED0
:10167000DBCFE6FFFEEC01F0006E050EE15C02E25E
:10168000E16AE552E16E0050E1D7FC0EDBCFE9FFE5
:10169000FD0EDBCFEAFF040EE926000EEA22020E61
:1016A000EECFDBFF030EEDCFDBFF020EDBCFE9FF5A
:1016B000030EDBCFEAFF20C6EEFF21C6EDFF020ED0
:1016C000DBCF20F6030EDBCF21F6FC0EDBCFE9FFEC
:1016D000FD0EDBCFEAFFEF6AFC0EDBCFE9FFFD0E6C
:1016E000DBCFEAFF040EE926000EEA22C8C4EEFFB3
:1016F000C9C4EDFFFC0EDBCFC8F4FD0EDBCFC9F48F
:10170000DF5001E0F28E010EDB0402E1DCEC05F0BB
:10171000F90EDBCFE9FFFA0EDBCFEAFFEF6AF36ADF
:10172000F46A16D0DF5001E0F28EF90EDBCFE9FF4C
:10173000FA0EDBCFEAFF070EEF6EFC0EDBCF00F0F8
:10174000FD0EDBCF01F000C0F3FF01C0F4FF00D0BD
:10175000040EE15C02E2E16AE552E16EE552E5CF9A
:10176000DAFFE7CFD9FF1200D9CFE6FFDACFE6FFE5
:10177000E1CFD9FFE2CFDAFFE652E652E652D95086
:10178000FC0FE96EFF0EDA20EA6EEE50ED1002E17A
:10179000040E68D0FC0EDBCFE9FFFD0EDBCFEAFFC5
:1017A000EF50020802E0010E5DD0DF6AF2AE02D017
:1017B000010EDF6EF29EFC0EDBCFE9FFFD0EDBCFEC
:1017C000EAFF040EE926000EEA22010EEECFDBFF4F
:1017D000020EEDCFDBFF010EDBCFE9FF020EDBCF08
:1017E000EAFF020EE926000EEA22EECF00F0EFCF6C
:1017F00001F0010EDBCFE9FF020EDBCFEAFF060EA0
:10180000E926000EEA2200C0EEFF01C0EDFF010E46
:10181000DBCFE9FF020EDBCFEAFF020EE926000E66
:10182000EA22EECF00F0EFCF01F0010EDBCFE9FFAF
:10183000020EDBCFEAFF080EE926000EEA2200C006
:10184000EEFF01C0EDFF010EDBCFE9FF020EDBCFA3
:10185000EAFF0C0EEB6A0D0EEB6ADF5001E0F28E30
:10186000000E00D0E552E552E552E552E5CFDAFF31
:10187000E7CFD9FF1200D9CFE6FFDACFE6FFE1CFFD
:10188000D9FFE2CFDAFFE652E652E652E652E652DE
:1018900005011A5100080BE2F80EDBCFE9FFF90E43
:1018A000DBCFEAFF020EEF6EF36AF46A51D1D95032
:1018B000FC0FE96EFF0EDA20EA6EEE50ED100BE140
:1018C000F80EDBCFE9FFF90EDBCFEAFF040EEF6E77
:1018D000F36AF46A3DD1FC0EDBCFE9FFFD0EDBCFEE
:1018E000EAFFEF5002080BE0F80EDBCFE9FFF90E3C
:1018F000DBCFEAFF010EEF6EF36AF46A29D1DF6AEB
:10190000F2AE02D0010EDF6EF29EFC0EDBCFE9FFDD
:10191000FD0EDBCFEAFF040EE926000EEA22030EDD
:10192000EECFDBFF040EEDCFDBFF030EDBCFE9FFD5
:10193000040EDBCFEAFF0C0EE926000EEA22EE5081
:10194000ED1001E17CD0030EDBCFE9FF040EDBCF0D
:10195000EAFF080EE926000EEA22EECFF3FFEDCFF4
:10196000F4FF020EEE26000EEF22F3CFE9FFF4CFD4
:10197000EAFF010EEECFDBFF020EEDCFDBFF030E21
:10198000DBCFE9FF040EDBCFEAFF0C0EE926000EE9
:10199000EA22EE06000EEF5A030EDBCFE9FF040E3B
:1019A000DBCFEAFF080EE926000EEA22EECF00F0B8
:1019B000EFCF01F0030EDBCFE9FF040EDBCFEAFF30
:1019C000040EE926000EEA22EECF02F0EFCF03F07C
:1019D0000250001802E1035001181CE1030EDBCF96
:1019E000E9FF040EDBCFEAFF020EE926000EEA2231
:1019F000EECF00F0EFCF01F0030EDBCFE9FF040ED6
:101A0000DBCFEAFF080EE926000EEA2200C0EEFF57
:101A100001C0EDFFDF5001E0F28EF80EDBCFE9FFF1
:101A2000F90EDBCFEAFFEF6A010EDBCF00F0020E0A
:101A3000DBCF01F000C0F3FF01C0F4FF89D08CC5FB
:101A4000E9FF8DC5EAFF0C0EE926000EEA22EF84BD
:101A50008CC5E9FF8DC5EAFF0A0EE926000EEA22D1
:101A6000FA0EDBCFEEFFFB0EDBCFEDFFFC0EDBCF84
:101A7000E6FFFD0EDBCFE6FF2FEC03F0E552E5526B
:101A8000DF5001E0F28EDCEC05F0DF6AF2AE02D04E
:101A9000010EDF6EF29E8CC5E9FF8DC5EAFF080ED0
:101AA000E926000EEA22010EEECFDBFF020EEDCF9B
:101AB000DBFFD950010FE96E000EDA20EA6EEE501E
:101AC000ED102EE08CC5E9FF8DC5EAFF080EEB6A2C
:101AD000090EEB6A8CC5E9FF8DC5EAFF0C0EE926FD
:101AE000000EEA22EF6A8CC5E9FF8DC5EAFF060EFB
:101AF000EB6A070EEB6ADF5001E0F28EF80EDBCFE7
:101B0000E9FFF90EDBCFEAFFEF6A010EDBCF00F051
:101B1000020EDBCF01F000C0F3FF01C0F4FF18D0CC
:101B2000FC0EDBCFE6FFFD0EDBCFE6FF9EEC03F005
:101B3000E552E552DF5001E0F28EF80EDBCFE9FF0F
:101B4000F90EDBCFEAFF0A0EEF6EF36AF46A00D0FB
:101B5000050EE15C02E2E16AE552E16EE552E5CF95
:101B6000DAFFE7CFD9FF1200D9CFE6FFDACFE6FFE1
:101B7000E1CFD9FFE2CFDAFFE652E652E652D95082
:101B8000FC0FE96EFF0EDA20EA6EEE50ED1002E176
:101B9000040EE6D0D950FA0FE96EFF0EDA20EA6E95
:101BA000EE50ED1002E1030EDBD0FC0EDBCFE9FFBF
:101BB000FD0EDBCFEAFFEF50020802E0010ED0D0AD
:101BC000DF6AF2AE02D0010EDF6EF29EFC0EDBCFBA
:101BD000E9FFFD0EDBCFEAFFEE52EF501FE0040EEF
:101BE000E66EFA0EDBCFE6FFFB0EDBCFE6FFFC0E68
:101BF000DBCFE6FFFD0EDBCFE6FFFEEC01F0006E73
:101C0000050EE15C02E2E16AE552E16E0050DF5050
:101C100001E0F28EDCEC05F0000EA2D0FC0EDBCF72
:101C2000E9FFFD0EDBCFEAFF040EE926000EEA22F3
:101C3000010EEECFDBFF020EEDCFDBFF010EDBCF9F
:101C4000E9FF020EDBCFEAFF0C0EE926000EEA22C6
:101C5000EECF00F0EFCF01F0010EDBCFE9FF020E77
:101C6000DBCFEAFF0A0EE926000EEA22EECF02F0F1
:101C7000EFCF03F00250005C0350015805E3DF5042
:101C800001E0F28E1E0E6CD0010EDBCFE9FF020EDA
:101C9000DBCFEAFF060EE926000EEA22EECFF3FFC5
:101CA000EDCFF4FF020EEE26000EEF22F3CFE9FF98
:101CB000F4CFEAFFFA0EDBCFEEFFFB0EDBCFEDFF3A
:101CC000010EDBCFE9FF020EDBCFEAFF0C0EE926A7
:101CD000000EEA22EE2A000EEF22010EDBCFE9FF12
:101CE000020EDBCFEAFF060EE926000EEA22EECF57
:101CF00000F0EFCF01F0010EDBCFE9FF020EDBCFEA
:101D0000EAFF040EE926000EEA22EECF02F0EFCF42
:101D100003F00250001802E1035001181CE1010E0B
:101D2000DBCFE9FF020EDBCFEAFF020EE926000E51
:101D3000EA22EECF00F0EFCF01F0010EDBCFE9FF9A
:101D4000020EDBCFEAFF060EE926000EEA2200C0F3
:101D5000EEFF01C0EDFFDF5001E0F28E000E00D07B
:101D6000E552E552E552E552E5CFDAFFE7CFD9FF7C
:101D70001200D9CFE6FFDACFE6FFE1CFD9FFE2CFFD
:101D8000DAFFE652E652E652D950FC0FE96EFF0E3A
:101D9000DA20EA6EEE50ED1002E1040EECD0D950DC
:101DA000FA0FE96EFF0EDA20EA6EEE50ED1002E156
:101DB000030EE1D0FC0EDBCFE9FFFD0EDBCFEAFF27
:101DC000EF50020802E0010ED6D0DF6AF2AE02D078
:101DD000010EDF6EF29EFC0EDBCFE9FFFD0EDBCFC6
:101DE000EAFFEE52EF501FE0040EE66EFA0EDBCF74
:101DF000E6FFFB0EDBCFE6FFFC0EDBCFE6FFFD0EC2
:101E0000DBCFE6FFFEEC01F0006E050EE15C02E2C6
:101E1000E16AE552E16E0050DF5001E0F28EDCEC49
:101E200005F0000EA8D0FC0EDBCFE9FFFD0EDBCFE6
:101E3000EAFF040EE926000EEA22010EEECFDBFFD8
:101E4000020EEDCFDBFF010EDBCFE9FF020EDBCF91
:101E5000EAFF0C0EE926000EEA22EECF00F0EFCFEB
:101E600001F0010EDBCFE9FF020EDBCFEAFF0A0E25
:101E7000E926000EEA22EECF02F0EFCF03F0025087
:101E8000005C0350015805E3DF5001E0F28E1E0EA6
:101E900072D0010EDBCFE9FF020EDBCFEAFF080EA6
:101EA000E926000EEA22EECF00F0EFCF01F0010E9E
:101EB000DBCFE9FF020EDBCFEAFF020EE926000EC0
:101EC000EA22EECF02F0EFCF03F00250001802E159
:101ED000035001181CE1010EDBCFE9FF020EDBCF3E
:101EE000EAFF040EE926000EEA22EECF00F0EFCF63
:101EF00001F0010EDBCFE9FF020EDBCFEAFF080E97
:101F0000E926000EEA2200C0EEFF01C0EDFF010E3F
:101F1000DBCFE9FF020EDBCFEAFF080EE926000E59
:101F2000EA22020EEE5E000EEF5A010EDBCFE9FF51
:101F3000020EDBCFEAFF080EE926000EEA22EE5081
:101F4000EFCFEAFFE96EFA0EDBCFEEFFFB0EDBCF41
:101F5000EDFF010EDBCFE9FF020EDBCFEAFF0C0E37
:101F6000E926000EEA22EE2A000EEF22DF5001E001
:101F7000F28E000E00D0E552E552E552E552E5CF73
:101F8000DAFFE7CFD9FF1200D9CFE6FFDACFE6FFBD
:101F9000E1CFD9FFE2CFDAFFE652E652E652D9505E
:101FA000FC0FE96EFF0EDA20EA6EEE50ED1002E152
:101FB000040E70D1D950FA0FE96EFF0EDA20EA6EE6
:101FC000EE50ED1002E1030E65D1FC0EDBCFE9FF10
:101FD000FD0EDBCFEAFFEF50020802E0010E5AD1FE
:101FE000DF6AF2AE02D0010EDF6EF29EFC0EDBCF96
:101FF000E9FFFD0EDBCFEAFFEE52EF5045E0F90EB0
:10200000DBA023D0FC0EDBCFE9FFFD0EDBCFEAFF28
:10201000EE52EF5019E0040EE66EFA0EDBCFE6FF4B
:10202000FB0EDBCFE6FFFC0EDBCFE6FFFD0EDBCFCA
:10203000E6FFFEEC01F0006E050EE15C02E2E16AF3
:10204000E552E16E0050DED718D0040EE66EFA0EAF
:10205000DBCFE6FFFB0EDBCFE6FFFC0EDBCFE6FFC0
:10206000FD0EDBCFE6FFFEEC01F0006E050EE15C3D
:1020700002E2E16AE552E16E0050DF5001E0F28ECB
:10208000DCEC05F0000E06D1FC0EDBCFE9FFFD0E07
:10209000DBCFEAFF040EE926000EEA22010EEECFA6
:1020A000DBFF020EEDCFDBFF010EDBCFE9FF020EFF
:1020B000DBCFEAFF0C0EE926000EEA22EECF00F09D
:1020C000EFCF01F0010EDBCFE9FF020EDBCFEAFF1D
:1020D0000A0EE926000EEA22EECF02F0EFCF03F05F
:1020E0000250005C0350015805E3DF5001E0F28E1E
:1020F0001E0ED0D0F90EDBA261D0010EDBCFE9FFBE
:10210000020EDBCFEAFF080EE926000EEA22EECF30
:1021100000F0EFCF01F0010EDBCFE9FF020EDBCFC5
:10212000EAFF020EE926000EEA22EECF02F0EFCF20
:1021300003F00250001802E1035001181CE1010EE7
:10214000DBCFE9FF020EDBCFEAFF040EE926000E2B
:10215000EA22EECF00F0EFCF01F0010EDBCFE9FF76
:10216000020EDBCFEAFF080EE926000EEA2200C0CD
:10217000EEFF01C0EDFF010EDBCFE9FF020EDBCF6A
:10218000EAFF080EE926000EEA22020EEE5E000EBD
:10219000EF5A010EDBCFE9FF020EDBCFEAFF080E9C
:1021A000E926000EEA22EE50EFCFEAFFE96EFA0EC2
:1021B000DBCFEEFFFB0EDBCFEDFF5AD0010EDBCF06
:1021C000E9FF020EDBCFEAFF060EE926000EEA2247
:1021D000EECFF3FFEDCFF4FF020EEE26000EEF225E
:1021E000F3CFE9FFF4CFEAFFFA0EDBCFEEFFFB0EF1
:1021F000DBCFEDFF010EDBCFE9FF020EDBCFEAFF05
:10220000060EE926000EEA22EECF00F0EFCF01F035
:10221000010EDBCFE9FF020EDBCFEAFF040EE92659
:10222000000EEA22EECF02F0EFCF03F002500018CA
:1022300002E1035001181CE1010EDBCFE9FF020EA1
:10224000DBCFEAFF020EE926000EEA22EECF00F015
:10225000EFCF01F0010EDBCFE9FF020EDBCFEAFF8B
:10226000060EE926000EEA2200C0EEFF01C0EDFFD7
:10227000010EDBCFE9FF020EDBCFEAFF0C0EE926F1
:10228000000EEA22EE2A000EEF22DF5001E0F28E6D
:10229000000E00D0E552E552E552E552E5CFDAFFF7
:1022A000E7CFD9FF1200D9CFE6FFDACFE6FFE1CFC3
:1022B000D9FFE2CFDAFF070EE12402E3E168E6523C
:1022C000E16ED950FC0FE96EFF0EDA20EA6EEE5097
:1022D000ED1002E1040EFBD0FC0EDBCFE9FFFD0E9A
:1022E000DBCFEAFFEF50020802E0010EF0D0DF6A18
:1022F000F2AE02D0010EDF6EF29EFC0EDBCFE9FFE4
:10230000FD0EDBCFEAFFEE52EF50E66EFA0EDBCFAA
:10231000E9FFFB0EDBCFEAFF080EE926000EEA22FA
:10232000E552E750EF6EFC0EDBCFE9FFFD0EDBCF91
:10233000EAFF060EE926000EEA22E9CF00F0EACF16
:1023400001F0030E00C0DBFF040E01C0DBFFFA0E3C
:10235000DBCFE9FFFB0EDBCFEAFF060EE926000E1E
:10236000EA22E9CF00F0EACF01F0050E00C0DBFF62
:10237000060E01C0DBFF030EDBCFE9FFDB2A040EF4
:10238000DBCFEAFF01E3DB2AEF50E66E050EDBCF81
:10239000E9FFDB2A060EDBCFEAFF01E3DB2AE55289
:1023A000E750EF6E030EDBCFE9FFDB2A040EDBCF35
:1023B000EAFF01E3DB2AEF50E66E050EDBCFE9FF13
:1023C000DB2A060EDBCFEAFF01E3DB2AE552E7500A
:1023D000EF6EFC0EDBCFE9FFFD0EDBCFEAFF040E54
:1023E000E926000EEA22010EEECFDBFF020EEDCF52
:1023F000DBFF010EDBCFE9FF020EDBCFEAFF0C0EA5
:10240000E926000EEA22000ED880EE54000EED54AC
:1024100019E2010EDBCFE9FF020EDBCFEAFF080E67
:10242000E926000EEA22EECF00F0EFCF01F0FA0E1F
:10243000DBCFE9FFFB0EDBCFEAFF00C0EEFF01C000
:10244000EDFF08D0FA0EDBCFE9FFFB0EDBCFEAFF92
:10245000EE6AED6A010EDBCFE9FF020EDBCFEAFF89
:102460000C0EE926000EEA22EECF00F0EFCF01F0CD
:10247000FA0EDBCFE9FFFB0EDBCFEAFF020EE92607
:10248000000EEA2200C0EEFF01C0EDFF010EDBCF1F
:10249000E9FF020EDBCFEAFF0A0EE926000EEA2270
:1024A000EECF00F0EFCF01F0FA0EDBCFE9FFFB0E2D
:1024B000DBCFEAFF040EE926000EEA2200C0EEFFA1
:1024C00001C0EDFFDF5001E0F28E000E00D0006E83
:1024D000070EE15C02E2E16AE552E16E0050E5526E
:1024E000E5CFDAFFE7CFD9FF1200D9CFE6FFDACF89
:1024F000E6FFE1CFD9FFE2CFDAFF060EE12402E3E7
:10250000E168E652E16ED950020FE96EDACFEAFFD8
:10251000000EEA22220EEE6E060EED6ED950040F6A
:10252000E96EDACFEAFF000EEA22300EEE6E060EFA
:10253000ED6EDE6ADD6ADECF00F0DDCF01F0026A0B
:10254000036AD8900350000A08E6010E005C000EF2
:102550000158000E0258000E035825E2020EDBCF90
:10256000E9FF030EDBCFEAFF040EDBCFEEFF050E23
:10257000DBCFEDFFD950020FE96E000EDA20EA6ED4
:102580000E0EEE26000EEF22D950040FE96E000E5B
:10259000DA20EA6E0E0EEE26000EEF22DF2A010E82
:1025A00001E3DB2AC8D7020EDBCFE9FF030EDBCF46
:1025B000EAFFEE6AED6A0601220E206F060E216F19
:1025C000060EE15C02E2E16AE552E16EE552E5CF1A
:1025D000DAFFE7CFD9FF1200D9CFE6FFDACFE6FF67
:1025E000E1CFD9FFE2CFDAFFE652E652E652D95008
:1025F000FC0FE96EFF0EDA20EA6EEE50ED1003E1FB
:10260000F36AF46A49D0FC0EDBCFE9FFFD0EDBCFA5
:10261000EAFFEF50030803E0F36AF46A3DD0DF6A93
:10262000F2AE02D0010EDF6EF29EFC0EDBCFE9FFB0
:10263000FD0EDBCFEAFF020EE926000EEA22010EB4
:10264000EECFDBFF020EEDCFDBFFD950010FE96EBD
:10265000000EDA20EA6E000ED880EE54000EED5423
:102660000DE2FC0EDBCFE9FFFD0EDBCFEAFF020E31
:10267000E926000EEA22EE06000EEF5ADF5001E0D6
:10268000F28E010EDBCF00F0020EDBCF01F000C0B6
:10269000F3FF01C0F4FF00D0E552E552E552E552E8
:1026A000E5CFDAFFE7CFD9FF1200D9CFE6FFDACFC7
:1026B000E6FFE1CFD9FFE2CFDAFFE652E652E6527B
:1026C00005011A51000803E2F36AF46A55D0DF6A83
:1026D000F2AE02D0010EDF6EF29E010EC8C4DBFF27
:1026E000020EC9C4DBFF0401C851C9110CE0C8C403
:1026F000E9FFC9C4EAFF040EE926000EEA22EECF84
:10270000C8F4EDCFC9F4DF5001E0F28ED950010FCB
:10271000E96E000EDA20EA6EEE50ED1022E0010EB6
:10272000DBCFE9FF020EDBCFEAFF030EEF6E010EF7
:10273000DBCFE9FF020EDBCFEAFF020EE926000E37
:10274000EA22FC0EDBCFEEFFFD0EDBCFEDFF010E2C
:10275000DBCFE6FF020EDBCFE6FFF4EC03F0E55241
:10276000E552010EDBCF00F0020EDBCF01F000C01E
:10277000F3FF01C0F4FF00D0E552E552E552E55207
:10278000E5CFDAFFE7CFD9FF1200D9CFE6FFDACFE6
:10279000E6FFE1CFD9FFE2CFDAFFE652E6520501CC
:1027A0001A51000813E2F90EDBCFE9FFFA0EDBCF76
:1027B000EAFF8C0EEF6EFC0EDBCF00F0FD0EDBCFE0
:1027C00001F000C0F3FF01C0F4FFF8D0D950FC0FB6
:1027D000E96EFF0EDA20EA6EEE50ED1013E1F90E0D
:1027E000DBCFE9FFFA0EDBCFEAFF040EEF6EFC0E43
:1027F000DBCF00F0FD0EDBCF01F000C0F3FF01C026
:10280000F4FFDCD0FC0EDBCFE9FFFD0EDBCFEAFFEF
:10281000EF50030813E0F90EDBCFE9FFFA0EDBCF30
:10282000EAFF010EEF6EFC0EDBCF00F0FD0EDBCFFA
:1028300001F000C0F3FF01C0F4FFC0D0DF6AF2AEC8
:1028400002D0010EDF6EF29EFC0EDBCFE9FFFD0E23
:10285000DBCFEAFFEE52EF5004E0DE52010EDD6EF8
:1028600002D0010EDB6AFB0EDB50010A45E0010AD3
:1028700001E08ED0010EDB5029E1FC0EDBCFE9FF39
:10288000FD0EDBCFEAFFEF6AFC0EDBCFE9FFFD0EAA
:10289000DBCFEAFF040EE926000EEA22C8C4EEFFF1
:1028A000C9C4EDFFFC0EDBCFC8F4FD0EDBCFC9F4CD
:1028B000DF5001E0F28EF90EDBCFE9FFFA0EDBCF3D
:1028C000EAFFEF6AF36AF46A79D016D0DF5001E0CC
:1028D000F28EF90EDBCFE9FFFA0EDBCFEAFF080E2E
:1028E000EF6EFC0EDBCF00F0FD0EDBCF01F000C081
:1028F000F3FF01C0F4FF62D0FC0EDBCFE9FFFD0E59
:10290000DBCFEAFFEE52EF5016E0010EE66E000E4E
:10291000E66EE66AFC0EDBCFE6FFFD0EDBCFE6FFE0
:10292000FEEC01F0006E050EE15C02E2E16AE552A8
:10293000E16E0050E1D7FC0EDBCFE9FFFD0EDBCFEF
:10294000EAFFEF6AFC0EDBCFE9FFFD0EDBCFEAFF0B
:10295000040EE926000EEA22C8C4EEFFC9C4EDFF4A
:10296000FC0EDBCFC8F4FD0EDBCFC9F4DF5001E075
:10297000F28E010EDB0402E1DCEC05F0F90EDBCF98
:10298000E9FFFA0EDBCFEAFFEF6AF36AF46A16D0CA
:10299000DF5001E0F28EF90EDBCFE9FFFA0EDBCF5C
:1029A000EAFF070EEF6EFC0EDBCF00F0FD0EDBCF73
:1029B00001F000C0F3FF01C0F4FF00D0E552E55282
:1029C000E552E5CFDAFFE7CFD9FF1200D9CFE6FF16
:1029D000DACFE6FFE1CFD9FFE2CFDAFFE652050119
:1029E0001A51000809E2F80EDBCFE9FFF90EDBCF40
:1029F000EAFF020EEF6EAED0D950FC0FE96EFF0E6B
:102A0000DA20EA6EEE50ED1009E1F80EDBCFE9FFB7
:102A1000F90EDBCFEAFF040EEF6E9CD0FC0EDBCF8D
:102A2000E9FFFD0EDBCFEAFFEF50030809E0F80EE7
:102A3000DBCFE9FFF90EDBCFEAFF010EEF6E8AD0A4
:102A4000DF6AF2AE02D0010EDF6EF29EFC0EDBCF2B
:102A5000E9FFFD0EDBCFEAFF020EE926000EEA22B7
:102A6000000ED880EE54000EED5418E2FC0EDBCFC1
:102A7000E9FFFD0EDBCFEAFF020EE926000EEA2297
:102A8000EE06000EEF5ADF5001E0F28EF80EDBCFBB
:102A9000E9FFF90EDBCFEAFFEF6A5CD08CC5E9FFF6
:102AA0008DC5EAFF0C0EE926000EEA22EF808CC5E8
:102AB000E9FF8DC5EAFF0A0EE926000EEA22FA0EAA
:102AC000DBCFEEFFFB0EDBCFEDFFFC0EDBCFE6FF37
:102AD000FD0EDBCFE6FF2FEC03F0E552E552DF50B1
:102AE00001E0F28EDCEC05F0DF6AF2AE02D0010EFE
:102AF000DF6EF29E8CC5E9FF8DC5EAFF0C0EEB5030
:102B0000010B16E0FC0EDBCFE6FFFD0EDBCFE6FF90
:102B10009EEC03F0E552E552DF5001E0F28EF80E34
:102B2000DBCFE9FFF90EDBCFEAFF0A0EEF6E12D022
:102B30008CC5E9FF8DC5EAFF060EEB6A070EEB6A4E
:102B4000DF5001E0F28EF80EDBCFE9FFF90EDBCFAC
:102B5000EAFFEF6AE552E552E5CFDAFFE7CFD9FFAA
:102B60001200D9CFE6FFDACFE6FFE1CFD9FFE2CFFF
:102B7000DAFFE652D950FC0FE96EFF0EDA20EA6E5A
:102B8000EE50ED1002E1040E67D0FC0EDBCFE9FF42
:102B9000FD0EDBCFEAFFEF50030802E0010E5CD030
:102BA000DF6AF2AE02D0010EDF6EF29EFC0EDBCFCA
:102BB000E9FFFD0EDBCFEAFFEE52EF501CE0010E05
:102BC000E66E000EE66EE66AFC0EDBCFE6FFFD0E5B
:102BD000DBCFE6FFFEEC01F0006E050EE15C02E2E9
:102BE000E16AE552E16E0050DF5001E0F28EDCEC6C
:102BF00005F0000E31D0FC0EDBCFE9FFFD0EDBCF80
:102C0000EAFF020EE926000EEA22EECF00F0EFCF37
:102C100001F0026AD8900250000A06E6FF0E005C3E
:102C2000FF0E0158000E025812E2FC0EDBCFE9FF46
:102C3000FD0EDBCFEAFF020EE926000EEA22EE2AA5
:102C4000000EEF22DF5001E0F28E000E05D0DF50C3
:102C500001E0F28E320E00D0E552E552E5CFDAFF08
:102C6000E7CFD9FF1200D9CFE6FFDACFE6FFE1CFF9
:102C7000D9FFE2CFDAFFE652E652E652E652E652DA
:102C8000D950FC0FE96EFF0EDA20EA6EEE50ED101F
:102C900002E1040E9AD0FC0EDBCFE9FFFD0EDBCF84
:102CA000EAFFEF50030802E0010E8FD0DF6AF2AEB8
:102CB00002D0010EDF6EF29EFC0EDBCFE9FFFD0EAF
:102CC000DBCFEAFFEE52EF50E66EFA0EDBCFE9FF04
:102CD000FB0EDBCFEAFF040EE926000EEA22E552E6
:102CE000E750EF6EFC0EDBCFE9FFFD0EDBCFEAFF16
:102CF000060EE926000EEA22E9CF00F0EACF01F045
:102D0000010E00C0DBFF020E01C0DBFFFA0EDBCFBD
:102D1000E9FFFB0EDBCFEAFF020EE926000EEA22F6
:102D2000E9CF00F0EACF01F0030E00C0DBFF040E94
:102D300001C0DBFF010EDBCFE9FFDB2A020EDBCF98
:102D4000EAFF01E3DB2AEF50E66E030EDBCFE9FF7B
:102D5000DB2A040EDBCFEAFF01E3DB2AE552E75072
:102D6000EF6E010EDBCFE9FFDB2A020EDBCFEAFFBD
:102D700001E3DB2AEF50E66E030EDBCFE9FFDB2A2F
:102D8000040EDBCFEAFF01E3DB2AE552E750EF6EEA
:102D9000FC0EDBCFE9FFFD0EDBCFEAFF020EE926DA
:102DA000000EEA22EECF00F0EFCF01F0FA0EDBCFFB
:102DB000E9FFFB0EDBCFEAFF00C0EEFF01C0EDFF35
:102DC000DF5001E0F28E000E00D0006E050EE15CD7
:102DD00002E2E16AE552E16E0050E552E5CFDAFF2A
:102DE000E7CFD9FF1200D9CFE6FFDACFE6FFE1CF78
:102DF000D9FFE2CFDAFFE652E652E652E652F60E8D
:102E0000DBCF00F0016A026A036A0334000E031884
:102E100009E6D8800F0E0054000E0154000E025433
:102E2000000E035402E22A0EA4D0DF6AF2AE02D0F2
:102E3000010EDF6EF29EF60EEA6ADB34FE0BEA3616
:102E4000E96E940EE926050EEA22EE50ED1001E03F
:102E50008BD0F60EEA6ADB34FE0BEA36E96E940E8E
:102E6000E926050EEA22010EEE6EED6ADF5001E062
:102E7000F28E000EE66EE66AF70EDBCFE6FFF80E86
:102E8000DBCFE6FFF90EDBCFE6FFFA0EDBCFE6FF86
:102E9000FB0EDBCFE6FFFC0EDBCFE6FFFD0EDBCF4C
:102EA000E6FF45EC1DF0006E090EE15C02E2E16A0E
:102EB000E552E16E0050DE52F3CFDEFFF4CFDDFFCE
:102EC000DD52000EE66EE66A000EE66EE66AE66A1F
:102ED000E66AE66AE66A000EE66EE66A000EE66EEE
:102EE000E66A010EDBCFE6FF020EDBCFE6FFF60E51
:102EF000DBCFE6FF8AEC06F0006E0F0EE15C02E22B
:102F0000E16AE552E16E0050E76E030EE7CFDBFFAA
:102F1000030EDB5011E1DF6AF2AE02D0010EDF6E6C
:102F2000F29E0501232BDF5001E0F28E0501220500
:102F300002E1DCEC05F015D0DF6AF2AE02D0010E42
:102F4000DF6EF29EF60EEA6ADB34FE0BEA36E96EBD
:102F5000940EE926050EEA22EE6AED6ADF5001E0E2
:102F6000F28E030EDB5005D0DF5001E0F28E280E0A
:102F700000D0006E040EE15C02E2E16AE552E16E0F
:102F80000050E552E5CFDAFFE7CFD9FF1200D9CFE5
:102F9000E6FFDACFE6FFE1CFD9FFE2CFDAFFE65274
:102FA000D950FC0FE96EFF0EDA20EA6E000ED880D1
:102FB000EE54000EED5439E2DF6AF2AE02D0010E9B
:102FC000DF6EF29E8CC5E9FF8DC5EAFF100EEB5057
:102FD000E81C006E8CC5E9FF8DC5EAFF0F0EEB50B3
:102FE000EA6A200FE96E050EEA220050EF16EF5054
:102FF00009E18CC5E9FF8DC5EAFF110EEB50E81C15
:1030000005011F178CC5E9FF8DC5EAFF0A0EE926E9
:10301000000EEA22FC0EDBCFEEFFFD0EDBCFEDFF54
:10302000DF5001E0F28EDCEC05F0E552E552E5CF31
:10303000DAFFE7CFD9FF1200D9CFE6FFDACFE6FFFC
:10304000E1CFD9FFE2CFDAFF060EE12402E3E16827
:10305000E652E16EFD0EDB50000815E3FC0EDB507E
:10306000000811E3FB0EDB5000080DE3D950F90F07
:10307000E96EFF0EDA20EA6E000ED880EE54000EE4
:10308000ED5401E337D1FC0EDB503B0802E2510E58
:1030900033D1FB0EDB503B0802E2520E2DD1D9504A
:1030A000F90FE96EFF0EDA20EA6EE70ED880EE54D3
:1030B000030EED5402E2530E1FD1FD0EDBCF04F0E0
:1030C000056A066A076A100E1D6E0E0E1E6E1F6AD6
:1030D000206A04C018F005C019F006C01AF007C035
:1030E0001BF0AFEC20F014C004F015C005F016C0C2
:1030F00006F017C007F0FC0EDBCF08F0096A0A6A79
:103100000B6A3C0E1D6E1E6A1F6A206A08C018F00A
:1031100009C019F00AC01AF00BC01BF0AFEC20F088
:1031200014C008F015C009F016C00AF017C00BF063
:1031300008500426095005220A5006220B50072287
:10314000FB0EDBCF0CF00D6A0E6A0F6A04500C24E4
:10315000006E05500D20016E06500E20026E0750C5
:103160000F20036E640E1D6E1E6A1F6A206A00C067
:1031700018F001C019F002C01AF003C01BF0AFEC48
:1031800020F014C000F015C001F016C002F017C006
:1031900003F0F90EDBCF10F0FA0EDBCF11F0126A5C
:1031A000136A050E1026000E1122000E1222000EC8
:1031B0001322640E1D6E1E6A1F6A206A10C018F06A
:1031C00011C019F012C01AF013C01BF0AFEC20F0C0
:1031D00014C010F015C011F016C012F017C013F093
:1031E000E80E1D6E030E1E6E1F6A206A10C018F0D6
:1031F00011C019F012C01AF013C01BF01EEC21F020
:1032000018C010F019C011F01AC012F01BC013F052
:103210001050002611500122125002221350032296
:1032200000C0DFFF010E01C0DBFF020E02C0DBFFAA
:10323000030E03C0DBFFD9CFE9FFDACFEAFFEECF01
:1032400018F0EECF19F0EECF1AF0EFCF1BF01D6A99
:103250001E6A010E1F6E206A1EEC21F0040E18C0BB
:10326000DBFF050E19C0DBFFD9CFE9FFDACFEAFF9C
:10327000EECF18F0EECF19F0EECF1AF0EFCF1BF033
:103280001D6A1E6A010E1F6E206A1EEC21F014C01A
:10329000DEFF15C0DEFF16C0DEFF17C0DDFFDD520A
:1032A000DD52000EDBCFE6FF010EDBCFE6FF6FDE67
:1032B000E552E552D950040FE96E000EDA20EA6EAD
:1032C000000ED880EE54000EED5412E2E66A800E35
:1032D000E66E5DDEE552E552E66A800EE66E57DE8A
:1032E000E552E552040EDB06050E01E2DB06E2D7ED
:1032F000000E02D0540E00D0006E060EE15C02E219
:10330000E16AE552E16E0050E552E5CFDAFFE7CF22
:10331000D9FF1200D9CFE6FFDACFE6FFE1CFD9FF20
:10332000E2CFDAFFE652E652E652FD0EDBCF00F0C6
:10333000016A026A036AD8900350000A08E60F0E79
:10334000005C000E0158000E0258000E035802E304
:103350002A0E84D0DF6AF2AE02D0010EDF6EF29E3A
:10336000FD0EEA6ADB34FE0BEA36E96E940EE926BE
:10337000050EEA22010EEECFDBFF020EEDCFDBFFE2
:10338000D950010FE96E000EDA20EA6EEE50ED1012
:1033900060E0010EDBCFE9FF020EDBCFEAFF0A0E91
:1033A000E926000EEA22EE50ED104EE0010EDBCFD2
:1033B000E9FF020EDBCFEAFF0A0EEB6A0B0EEB6AA7
:1033C000010EDBCFE9FF020EDBCFEAFF0C0EE92690
:1033D000000EEA22EF50080B31E1010EDBCFE9FFCE
:1033E000020EDBCFEAFF110EE926000EEA22EF50B3
:1033F00005011F13010EDBCFE9FF020EDBCFEAFF51
:10340000100EE926000EEA22EFCF00F0010EDBCF0E
:10341000E9FF020EDBCFEAFF0F0EE926000EEA22DB
:10342000EF50EA6A200FE96E050EEA220050EF1213
:10343000DF5001E0F28EDCEC05F003D0DF5001E05C
:10344000F28E000E0BD005D0DF5001E0F28E500E50
:1034500005D0DF5001E0F28E0B0E00D0E552E552B0
:10346000E552E552E5CFDAFFE7CFD9FF1200D9CF19
:10347000E6FFDACFE6FFE1CFD9FFE2CFDAFFE6528F
:10348000E652E652E652E652DF6AF2AE02D0010E92
:10349000DF6EF29E010E3EC6DBFF020E3FC6DBFF73
:1034A000030E40C6DBFF040E41C6DBFFDF5001E028
:1034B000F28E010EDBCF00F0020EDBCF01F0030E27
:1034C000DBCF02F0040EDBCF03F000C018F001C028
:1034D00019F002C01AF003C01BF000D0050EE15C29
:1034E00002E2E16AE552E16EE552E5CFDAFFE7CFAD
:1034F000D9FF1200D9CFE6FFDACFE6FFE1CFD9FF3F
:10350000E2CFDAFFE652DF6AF2AE02D0010EDF6EE2
:10351000F29EFA0EDBCF3EF6FB0EDBCF3FF6FC0E43
:10352000DBCF40F6FD0EDBCF41F6DF5001E0F28E3F
:0E353000E552E552E5CFDAFFE7CFD9FF1200F2
:02353E00D9CFE3
:10354000E6FFDACFE6FFE1CFD9FFE2CFDAFF080EE0
:10355000E12402E3E168E652E16EDE6ADD6A020E12
:10356000DB6A030EDB6A040EDB6A050EDB6AD950E8
:10357000070FE66E000EDA20E66E000EE66EE66AD3
:103580009CC1E6FF9DC1E6FFE6EC14F0006E060E5E
:10359000E15C02E2E16AE552E16E0050870EE66E00
:1035A0005EEC21F0E552640EE66EA2EC21F0E552ED
:1035B000C0EC21F007EC00F0000901E0FBD7B7EC0C
:1035C00021F0F3CFDEFFF4CFDDFF8F0EE66E5EEC71
:1035D00021F0E552640EE66EA2EC21F0E552C0EC5B
:1035E00021F007EC00F0000901E0FBD7B7EC21F077
:1035F000020EF3CFDBFF030EF4CFDBFF970EE66E78
:103600005EEC21F0E552640EE66EA2EC21F0E5528C
:10361000C0EC21F007EC00F0000901E0FBD7B7ECAB
:1036200021F0040EF3CFDBFF050EF4CFDBFFD95002
:10363000070FE66E000EDA20E66E000EE66EE66A12
:10364000A0C1E6FFA1C1E6FFE6EC14F0006E060E95
:10365000E15C02E2E16AE552E16E005006014E5182
:10366000020A23E0030A13E0010A01E022D0040E5B
:10367000DB6A050EDB6AD950020FE96EDACFEAFF8A
:10368000000EEA22EE6AED6ADE6ADD6A13D0040EED
:10369000DB6A050EDB6AD950020FE96EDACFEAFF6A
:1036A000000EEA22EE6AED6A05D0040EDB6A050E12
:1036B000DB6A00D0A0C1E6FFA1C1E6FFB1EC15F0C6
:1036C000E552E552D9CFE6FFDACFE6FFA2C1E6FF29
:1036D000A3C1E6FFB4EC0DF0E552E552E552E55228
:1036E0009EC1E6FF9FC1E6FFB1EC15F0E552E55241
:1036F000050EE66EE66AC7EC17F0E552E55237D7DD
:10370000080EE15C02E2E16AE552E16EE552E5CFC6
:10371000DAFFE7CFD9FF1200D9CFE6FFDACFE6FF15
:10372000E1CFD9FFE2CFDAFFE652E652E652E652A7
:10373000D950010FE66E000EDA20E66E000EE66E3E
:10374000E66A9EC1E6FF9FC1E6FFE6EC14F0006E5C
:10375000060EE15C02E2E16AE552E16E0050D950EA
:10376000010FE66E000EDA20E66E000EE66EE66AE7
:10377000A2C1E6FFA3C1E6FF3BEC0CF0006E060E13
:10378000E15C02E2E16AE552E16E0050020EF3CF25
:10379000DBFF030EF4CFDBFF9CC1E6FF9DC1E6FF1C
:1037A000B1EC15F0E552E5520A0EE66EE66AC7EC9A
:1037B00017F0E552E552BCD7040EE15C02E2E16A83
:1037C000E552E16EE552E5CFDAFFE7CFD9FF12000F
:1037D000D9CFE6FFDACFE6FFE1CFD9FFE2CFDAFFBC
:1037E000E652E652E652010EDB6A8350080B01E016
:1037F000010EE76E010EE7CFDBFF640EE66EA2EC72
:1038000021F0E552010EDB0434E08350080B31E176
:1038100083B608D0020EE66EE66AC7EC17F0E552F2
:10382000E552F6D7D950020FE66E000EDA20E66EAA
:10383000000EE66EE66AA0C1E6FFA1C1E6FFE6EC77
:1038400014F0006E060EE15C02E2E16AE552E16E00
:10385000005006014E0706014E3503E30601030E34
:103860004E6FA0C1E6FFA1C1E6FFB1EC15F0E55235
:10387000E552140EE66EE66AC7EC17F0E552E55223
:10388000B4D7E552E552E552E552E5CFDAFFE7CF8E
:10389000D9FF1200D9CFE6FFDACFE6FFE1CFD9FF9B
:1038A000E2CFDAFF9F0EE66E42EC21F0E5520C0EFD
:1038B000E66EE66A2C0EE66E6AEC20F0E552E55202
:1038C000E5520F0EE66E5F0EE66E9B0EE66EE7ECBF
:1038D00020F0E552E552E5527F0E9212959E070EBA
:1038E0009612C16A3F0EB516010EE66EE66A55ECF9
:1038F00013F0E552E552F3CF9CF1F4CF9DF1000EA9
:10390000E66EE66A55EC13F0E552E552F3CF9EF110
:10391000F4CF9FF1010EE66EE66A55EC13F0E55226
:10392000E552F3CFA0F1F4CFA1F10A0EE66EE66AFC
:10393000600EE66E010EE66E2CEC09F0E552E552E3
:10394000E552E552F3CFA2F1F4CFA3F1030EE66EF8
:103950006C0EE66E020EE66E000EE66EE66A3E0E37
:10396000E66E350EE66E000EE66EF3EC16F0006EB7
:10397000080EE15C02E2E16AE552E16E0050010EE0
:10398000E66E340EE66E030EE66E000EE66EE66A36
:10399000180EE66E370EE66E000EE66EF3EC16F0CD
:1039A000006E080EE15C02E2E16AE552E16E005051
:1039B000040EE66EFC0EE66E030EE66E000EE66E7C
:1039C000E66AD00EE66E370EE66E000EE66EF3EC9B
:1039D00016F0006E080EE15C02E2E16AE552E16E6B
:1039E00000508C70320EE66EE66AC7EC17F0E552B6
:1039F000E5528C70320EE66EE66AC7EC17F0E552BF
:103A0000E552EFD7E552E5CFDAFFE7CFD9FF120055
:103A1000D9CFE6FFDACFE6FFE1CFD9FFE2CFDAFF79
:103A2000E652E652CD0EDE6EAB0EDD6E7E0ED36E2E
:103A3000080E956E8C908C928C948C988C9AF29E39
:103A400016EC00F0E66AA40EE66E010EE66ED9CF23
:103A5000E6FFDACFE6FF940EE66E380EE66E000E55
:103A6000E66EF3EC16F0006E080EE15C02E2E16A2D
:103A7000E552E16E0050BFEC00F0E552E552E55230
:0A3A8000E5CFDAFFE7CFD9FF12000F
:063A8A00D9CFE6FFDACF00
:103A9000E6FFE1CFD9FFE2CFDAFFE652E652F70EBA
:103AA000DBCFDEFFDBCFDDFFDFCFE9FFDF2A010E5B
:103AB000DBCFEAFF01E3DB2AF90EDBCFEFFFDFCF3D
:103AC000E9FFDF2A010EDBCFEAFF01E3DB2AFA0E72
:103AD000DBCFEFFFDFCFE9FFDF2A010EDBCFEAFF0D
:103AE00001E3DB2AEF68DFCFE9FFDF2A010EDBCF3E
:103AF000EAFF01E3DB2A1A0EEF6EDFCFE9FFDF2AD0
:103B0000010EDBCFEAFF01E3DB2A1B0EEF6EDFCFF6
:103B1000E9FFDF2A010EDBCFEAFF01E3DB2A1C0EFF
:103B2000EF6EDFCFE9FFDF2A010EDBCFEAFF01E313
:103B3000DB2A1D0EEF6EDFCFE9FFDF2A010EDBCFA0
:103B4000EAFF01E3DB2A1E0EEF6EDFCFE9FFDF2A7B
:103B5000010EDBCFEAFF01E3DB2A1F0EEF6EDFCFA2
:103B6000E9FFDF2A010EDBCFEAFF01E3DB2A2A0EA1
:103B7000EF6EDFCFE9FFDF2A010EDBCFEAFF01E3C3
:103B8000DB2A2B0EEF6EDFCFE9FFDF2A010EDBCF42
:103B9000EAFF01E3DB2A2C0EEF6EDFCFE9FFDF2A1D
:103BA000010EDBCFEAFF01E3DB2A2D0EEF6EDFCF44
:103BB000E9FFDF2A010EDBCFEAFF01E3DB2A2E0E4D
:103BC000EF6EDFCFE9FFDF2A010EDBCFEAFF01E373
:103BD000DB2A2F0EEF6EDFCFE9FFDF2A010EDBCFEE
:103BE000EAFF01E3DB2AFB0EDBCFEFFFDFCFE9FFCC
:103BF000DF2A010EDBCFEAFF01E3DB2AFC0EDBCF7D
:103C0000EFFFDFCFE9FFDF2A010EDBCFEAFF01E3A1
:103C1000DB2AFD0EDBCFEFFFDFCFE9FFDF2A010E4E
:103C2000DBCFEAFF01E3DB2A010EEF6EDECF00F00F
:103C3000DDCF01F000C0F3FF01C0F4FF00D0E5527A
:103C4000E552E552E5CFDAFFE7CFD9FF1200D9CF31
:103C5000E6FFDACFE6FFE1CFD9FFE2CFDAFFE552A8
:103C6000E5CFDAFFE7CFD9FF1200D9CFE6FFDACFF1
:103C7000E6FFE1CFD9FFE2CFDAFFE552E5CFDAFF89
:103C8000E7CFD9FF1200120012001200D9CFE6FFD1
:103C9000DACFE6FFE1CFD9FFE2CFDAFFE552E5CF99
:103CA000DAFFE7CFD9FF1200120012001200EBDF9B
:103CB0000501010E226F90C5E9FF91C5EAFFEECF25
:103CC000E1FFEDCFE2FF1F0EFC1402E00600FBD780
:103CD000FC5001E0FC6AE552E550E96E0500E55054
:103CE000FF6EE550FE6EE550FD6EE906F7E1E5CFAB
:103CF000F4FFE5CFF3FFE5CFF8FFE5CFF7FFE5CF22
:103D0000F6FFE5CFDAFFE7CFD9FFE552E5CFEAFFCF
:103D1000E5CFE9FFE550E5CFE0FFE5CFD8FF1000A4
:103D20001200F29ED8CFE4FFE0CFE4FFE46EE9CFCB
:103D3000E4FFEACFE4FFE652D9CFE6FFDACFE6FFB1
:103D4000F6CFE6FFF7CFE6FFF8CFE6FFF3CFE6FFCB
:103D5000F4CFE6FFE96A1F0EFC1409E0FDCFE6FF91
:103D6000FECFE6FFFFCFE6FF0600E92AF4D7E9CF52
:103D7000E6FFFC5001E0FC6A8CC5E9FF8DC5EAFF57
:103D8000E1CFEEFFE2CFEDFF7EDF90C58CF591C570
:103D90008DF51EC51DF590C5E9FF91C5EAFFEECF73
:103DA000E1FFEDCFE2FFE552E550E96E0500E55099
:103DB000FF6EE550FE6EE550FD6EE906F7E1E5CFDA
:103DC000F4FFE5CFF3FFE5CFF8FFE5CFF7FFE5CF51
:103DD000F6FFE5CFDAFFE7CFD9FFE552E5CFEAFFFF
:103DE000E5CFE9FFE550E5CFE0FFE5CFD8FF1000D4
:103DF0001200D8CFE4FFE0CFE4FFE46EE9CFE4FFA8
:103E0000EACFE4FFE652D9CFE6FFDACFE6FFF6CFFE
:103E1000E6FFF7CFE6FFF8CFE6FFF3CFE6FFF4CFFC
:103E2000E6FFE96A1F0EFC1409E0FDCFE6FFFECFB6
:103E3000E6FFFFCFE6FF0600E92AF4D7E9CFE6FF69
:103E4000FC5001E0FC6A05011A2B05011A0508E186
:103E50008CC5E9FF8DC5EAFFE1CFEEFFE2CFEDFFB4
:103E6000ADEC21F039EC00F0E552E550E96E0500CB
:103E7000E550FF6EE550FE6EE550FD6EE906F7E198
:103E8000E5CFF4FFE5CFF3FFE5CFF8FFE5CFF7FF90
:103E9000E5CFF6FFE5CFDAFFE7CFD9FFE552E5CF73
:103EA000EAFFE5CFE9FFE550E5CFE0FFE5CFD8FF3A
:103EB00010001200E8DE90C58CF591C58DF51EC589
:103EC0001DF590C5E9FF91C5EAFFEECFE1FFEDCF0B
:103ED000E2FF1F0EFC1402E00600FBD7FC5001E0DD
:103EE000FC6AE552E550E96E0500E550FF6EE550CD
:103EF000FE6EE550FD6EE906F7E1E5CFF4FFE5CF94
:103F0000F3FFE5CFF8FFE5CFF7FFE5CFF6FFE5CF0D
:103F1000DAFFE7CFD9FFE552E5CFEAFFE5CFE9FFCA
:0E3F2000E550E5CFE0FFE5CFD8FF100012001E
:023F2E0001028E
:103F3000040810204080000001000200010003007E
:103F40000100020001000400010002000100030062
:103F50000100020001000500010002000100030051
:103F60000100020001000400010002000100030042
:103F70000100020001000600010002000100030030
:103F80000100020001000400010002000100030022
:103F90000100020001000500010002000100030011
:103FA0000100020001000400010002000100030002
:103FB00001000200010007000100020001000300EF
:103FC00001000200010004000100020001000300E2
:103FD00001000200010005000100020001000300D1
:103FE00001000200010004000100020001000300C2
:103FF00001000200010006000100020001000300B0
:1040000001000200010004000100020001000300A1
:104010000100020001000500010002000100030090
:104020000100020001000400010002000100030081
:0640300001000200010086
:0A4036001E0EF66E000EF76E000E6F
:10404000F86E06010900F550476F0900F550486FFA
:1040500003E1476701D03DD00900F550426F0900E8
:10406000F550436F0900F550446F09000900F55001
:10407000E96E0900F550EA6E090009000900F550E3
:10408000456F0900F550466F09000900F6CF49F663
:10409000F7CF4AF6F8CF4BF642C6F6FF43C6F7FF16
:1040A00044C6F8FF0601455302E1465307E0090004
:1040B000F550EE6E4507F8E24607F9D749C6F6FF18
:1040C0004AC6F7FF4BC6F8FF06014707000E485BDC
:0440D000BFD7120044
:0C40D400D9CFE6FFDACFE6FFE1CFD9FF3D
:1040E000E2CFDAFFAC6AAB6AFD0EDBB0AC88DBA2D4
:1040F00002D0AC8CAB8CDBB4AC8EDBA602D0AB8830
:1041000001D0AB8ADBB8AC849E98DBBAAB86DBAC63
:1041100002D09D8A01D09D9A9E9ADBAE02D09D88E6
:1041200001D09D98FB0EDB50AF6EFB0EFC0EDBCF7B
:1041300001F001C000F0016A0050B06EAC8AAB8E95
:10414000949C948EAC50100B04E0AC50800B01E1B9
:0E415000948CE552E5CFDAFFE7CFD9FF1200DD
:02415E001850F7
:104160001D02F3CF14F0F4CF15F01E02F350152604
:10417000000EF420166E18501F02F3501626000E83
:10418000F420176E18502002F350172619501D0204
:10419000F3501526F4501622000E172219501E0255
:1041A000F3501626F450172219501F02F350172609
:1041B0001A501D02F3501626F45017221A501E02F0
:0E41C000F35017261B501D02F3501726120055
:0241CE00D9CF47
:1041D000E6FFDACFE6FFE1CFD9FFE2CFDAFFC26A2E
:1041E000C06AFC0EDB407F0B3C0BC26EFC0EDB3862
:1041F000F00B300B006EFB0EDB500F0B0010C16E8E
:10420000FD0EDB50040DF350380B016EFD0EDB3854
:104210000F0B070B006EFD0EDB50800B0010011022
:10422000C06EFC0EDBAE03D09E9C9D8CF28CC280D7
:0C423000E552E5CFDAFFE7CFD9FF12001E
:04423C00176A166A7D
:10424000156A146A200EE76ED890183619361A3699
:104250001B3614361536163617361D50145C1E5094
:1042600015581F5016582050175809E31D50145E5A
:104270001E50155A1F50165A2050175A182AE72E4A
:04428000E4D712006D
:0C428400D9CFE6FFDACFE6FFE1CFD9FF8B
:10429000E2CFDAFFFD0EDB507F0BD56ED76AD66A10
:1042A000F294FD0EDBAE02D0F28A01D0F29AD58EE6
:0C42B000E552E5CFDAFFE7CFD9FF12009E
:0442BC00D9CFE6FF71
:1042C000DACFE6FFE1CFD9FFE2CFDAFFC30EC214A7
:1042D000006EFD0EDB407F0B3C0B0010C26EE55202
:0A42E000E5CFDAFFE7CFD9FF1200A7
:0642EA00000EF36E00EE71
:1042F00000F0080E01D81200EA6002D0EE6AFCD786
:0A430000F350E9601200EE6AFCD7EA
:06430A00F294010ED56ED5
:10431000D76AD66AD58E120092801200C282C2B2CB
:08432000FED7C45000D01200CA
:0843280010EE60F020EE60F0E1
:10433000F86A239C1BEC20F003EC00F008EC1DF065
:04434000FBD7120095
:0C434400FF0EE350E84E1200000000D015
:0A43500000D000D0E82EFAD71200CA
:06435A00F2A407D0F2946A
:0E436000D80ED76EA00ED66E30EC01F0120013
:02436E00C45039
:10437000036E026AC3500210F36E03C0F4FF120012
:04438000C2821200E3
:034384000A0D031C
:00000001FF
